{
  "contractName": "AuctionBid",
  "abi": [
    {
      "inputs": [
        {
          "internalType": "string",
          "name": "",
          "type": "string"
        }
      ],
      "name": "itemMapping",
      "outputs": [
        {
          "internalType": "string",
          "name": "bidder",
          "type": "string"
        },
        {
          "internalType": "string",
          "name": "owner",
          "type": "string"
        },
        {
          "internalType": "string",
          "name": "item",
          "type": "string"
        },
        {
          "internalType": "string",
          "name": "itemId",
          "type": "string"
        },
        {
          "internalType": "uint256",
          "name": "basePrice",
          "type": "uint256"
        },
        {
          "internalType": "uint256",
          "name": "currentPrice",
          "type": "uint256"
        },
        {
          "internalType": "uint256",
          "name": "timestamp",
          "type": "uint256"
        }
      ],
      "stateMutability": "view",
      "type": "function",
      "constant": true
    },
    {
      "inputs": [
        {
          "internalType": "uint256",
          "name": "",
          "type": "uint256"
        }
      ],
      "name": "items",
      "outputs": [
        {
          "internalType": "string",
          "name": "bidder",
          "type": "string"
        },
        {
          "internalType": "string",
          "name": "owner",
          "type": "string"
        },
        {
          "internalType": "string",
          "name": "item",
          "type": "string"
        },
        {
          "internalType": "string",
          "name": "itemId",
          "type": "string"
        },
        {
          "internalType": "uint256",
          "name": "basePrice",
          "type": "uint256"
        },
        {
          "internalType": "uint256",
          "name": "currentPrice",
          "type": "uint256"
        },
        {
          "internalType": "uint256",
          "name": "timestamp",
          "type": "uint256"
        }
      ],
      "stateMutability": "view",
      "type": "function",
      "constant": true
    },
    {
      "inputs": [
        {
          "internalType": "string",
          "name": "_bidder",
          "type": "string"
        },
        {
          "internalType": "string",
          "name": "_owner",
          "type": "string"
        },
        {
          "internalType": "string",
          "name": "_item",
          "type": "string"
        },
        {
          "internalType": "string",
          "name": "_itemId",
          "type": "string"
        },
        {
          "internalType": "uint256",
          "name": "_basePrice",
          "type": "uint256"
        },
        {
          "internalType": "uint256",
          "name": "_currentPrice",
          "type": "uint256"
        }
      ],
      "name": "addItem",
      "outputs": [],
      "stateMutability": "nonpayable",
      "type": "function"
    },
    {
      "inputs": [
        {
          "internalType": "string",
          "name": "_itemId",
          "type": "string"
        },
        {
          "internalType": "string",
          "name": "_bidder",
          "type": "string"
        },
        {
          "internalType": "uint256",
          "name": "_newPrice",
          "type": "uint256"
        }
      ],
      "name": "placeBid",
      "outputs": [],
      "stateMutability": "nonpayable",
      "type": "function"
    },
    {
      "inputs": [],
      "name": "getItemCount",
      "outputs": [
        {
          "internalType": "uint256",
          "name": "",
          "type": "uint256"
        }
      ],
      "stateMutability": "view",
      "type": "function",
      "constant": true
    },
    {
      "inputs": [
        {
          "internalType": "string",
          "name": "_itemId",
          "type": "string"
        }
      ],
      "name": "getItem",
      "outputs": [
        {
          "internalType": "string",
          "name": "bidder",
          "type": "string"
        },
        {
          "internalType": "string",
          "name": "owner",
          "type": "string"
        },
        {
          "internalType": "string",
          "name": "item",
          "type": "string"
        },
        {
          "internalType": "string",
          "name": "itemId",
          "type": "string"
        },
        {
          "internalType": "uint256",
          "name": "basePrice",
          "type": "uint256"
        },
        {
          "internalType": "uint256",
          "name": "currentPrice",
          "type": "uint256"
        },
        {
          "internalType": "uint256",
          "name": "timestamp",
          "type": "uint256"
        }
      ],
      "stateMutability": "view",
      "type": "function",
      "constant": true
    },
    {
      "inputs": [
        {
          "internalType": "string",
          "name": "_bidder",
          "type": "string"
        }
      ],
      "name": "getItemsByBidder",
      "outputs": [
        {
          "internalType": "string[]",
          "name": "itemIds",
          "type": "string[]"
        },
        {
          "internalType": "uint256[]",
          "name": "prices",
          "type": "uint256[]"
        }
      ],
      "stateMutability": "view",
      "type": "function",
      "constant": true
    }
  ],
  "bytecode": "0x608060405234801561001057600080fd5b5061232f806100206000396000f3fe608060405234801561001057600080fd5b506004361061007d5760003560e01c8063a1fc26e41161005b578063a1fc26e414610107578063b6010fcd14610123578063bfb231d214610159578063ca01e18d1461018f5761007d565b80636f5f5d7f146100825780637749cf23146100b85780639ca32e8c146100d6575b600080fd5b61009c6004803603810190610097919061139d565b6101ab565b6040516100af979695949392919061147e565b60405180910390f35b6100c0610423565b6040516100cd9190611509565b60405180910390f35b6100f060048036038101906100eb919061139d565b61042f565b6040516100fe9291906116ee565b60405180910390f35b610121600480360381019061011c9190611751565b6106db565b005b61013d6004803603810190610138919061139d565b6109ed565b604051610150979695949392919061147e565b60405180910390f35b610173600480360381019061016e919061184e565b610d19565b604051610186979695949392919061147e565b60405180910390f35b6101a960048036038101906101a4919061187b565b610f8b565b005b6001818051602081018201805184825260208301602085012081835280955050505050506000915090508060000180546101e490611935565b80601f016020809104026020016040519081016040528092919081815260200182805461021090611935565b801561025d5780601f106102325761010080835404028352916020019161025d565b820191906000526020600020905b81548152906001019060200180831161024057829003601f168201915b50505050509080600101805461027290611935565b80601f016020809104026020016040519081016040528092919081815260200182805461029e90611935565b80156102eb5780601f106102c0576101008083540402835291602001916102eb565b820191906000526020600020905b8154815290600101906020018083116102ce57829003601f168201915b50505050509080600201805461030090611935565b80601f016020809104026020016040519081016040528092919081815260200182805461032c90611935565b80156103795780601f1061034e57610100808354040283529160200191610379565b820191906000526020600020905b81548152906001019060200180831161035c57829003601f168201915b50505050509080600301805461038e90611935565b80601f01602080910402602001604051908101604052809291908181526020018280546103ba90611935565b80156104075780601f106103dc57610100808354040283529160200191610407565b820191906000526020600020905b8154815290600101906020018083116103ea57829003601f168201915b5050505050908060040154908060050154908060060154905087565b60008080549050905090565b6060806000805b6000805490508110156104ac5784805190602001206000828154811061045f5761045e611966565b5b906000526020600020906007020160000160405161047d9190611a38565b60405180910390200361049957818061049590611a7e565b9250505b80806104a490611a7e565b915050610436565b508067ffffffffffffffff8111156104c7576104c6611272565b5b6040519080825280602002602001820160405280156104fa57816020015b60608152602001906001900390816104e55790505b5092508067ffffffffffffffff81111561051757610516611272565b5b6040519080825280602002602001820160405280156105455781602001602082028036833780820191505090505b5091506000805b6000805490508110156106d35785805190602001206000828154811061057557610574611966565b5b90600052602060002090600702016000016040516105939190611a38565b6040518091039020036106c057600081815481106105b4576105b3611966565b5b906000526020600020906007020160030180546105d090611935565b80601f01602080910402602001604051908101604052809291908181526020018280546105fc90611935565b80156106495780601f1061061e57610100808354040283529160200191610649565b820191906000526020600020905b81548152906001019060200180831161062c57829003601f168201915b505050505085838151811061066157610660611966565b5b6020026020010181905250600081815481106106805761067f611966565b5b9060005260206000209060070201600501548483815181106106a5576106a4611966565b5b60200260200101818152505081806106bc90611a7e565b9250505b80806106cb90611a7e565b91505061054c565b505050915091565b600086511161071f576040517f08c379a000000000000000000000000000000000000000000000000000000000815260040161071690611b12565b60405180910390fd5b6000855111610763576040517f08c379a000000000000000000000000000000000000000000000000000000000815260040161075a90611b7e565b60405180910390fd5b60008451116107a7576040517f08c379a000000000000000000000000000000000000000000000000000000000815260040161079e90611bea565b60405180910390fd5b60008351116107eb576040517f08c379a00000000000000000000000000000000000000000000000000000000081526004016107e290611c56565b60405180910390fd5b6000821161082e576040517f08c379a000000000000000000000000000000000000000000000000000000000815260040161082590611ce8565b60405180910390fd5b81811015610871576040517f08c379a000000000000000000000000000000000000000000000000000000000815260040161086890611d7a565b60405180910390fd5b60006040518060e00160405280888152602001878152602001868152602001858152602001848152602001838152602001428152509050600081908060018154018082558091505060019003906000526020600020906007020160009091909190915060008201518160000190816108e99190611f46565b5060208201518160010190816108ff9190611f46565b5060408201518160020190816109159190611f46565b50606082015181600301908161092b9190611f46565b506080820151816004015560a0820151816005015560c0820151816006015550508060018560405161095d9190612054565b908152602001604051809103902060008201518160000190816109809190611f46565b5060208201518160010190816109969190611f46565b5060408201518160020190816109ac9190611f46565b5060608201518160030190816109c29190611f46565b506080820151816004015560a0820151816005015560c0820151816006015590505050505050505050565b606080606080600080600080885111610a3b576040517f08c379a0000000000000000000000000000000000000000000000000000000008152600401610a3290611c56565b60405180910390fd5b6000600189604051610a4d9190612054565b908152602001604051809103902090506000816003018054610a6e90611935565b905011610ab0576040517f08c379a0000000000000000000000000000000000000000000000000000000008152600401610aa7906120b7565b60405180910390fd5b80600001816001018260020183600301846004015485600501548660060154868054610adb90611935565b80601f0160208091040260200160405190810160405280929190818152602001828054610b0790611935565b8015610b545780601f10610b2957610100808354040283529160200191610b54565b820191906000526020600020905b815481529060010190602001808311610b3757829003601f168201915b50505050509650858054610b6790611935565b80601f0160208091040260200160405190810160405280929190818152602001828054610b9390611935565b8015610be05780601f10610bb557610100808354040283529160200191610be0565b820191906000526020600020905b815481529060010190602001808311610bc357829003601f168201915b50505050509550848054610bf390611935565b80601f0160208091040260200160405190810160405280929190818152602001828054610c1f90611935565b8015610c6c5780601f10610c4157610100808354040283529160200191610c6c565b820191906000526020600020905b815481529060010190602001808311610c4f57829003601f168201915b50505050509450838054610c7f90611935565b80601f0160208091040260200160405190810160405280929190818152602001828054610cab90611935565b8015610cf85780601f10610ccd57610100808354040283529160200191610cf8565b820191906000526020600020905b815481529060010190602001808311610cdb57829003601f168201915b50505050509350975097509750975097509750975050919395979092949650565b60008181548110610d2957600080fd5b9060005260206000209060070201600091509050806000018054610d4c90611935565b80601f0160208091040260200160405190810160405280929190818152602001828054610d7890611935565b8015610dc55780601f10610d9a57610100808354040283529160200191610dc5565b820191906000526020600020905b815481529060010190602001808311610da857829003601f168201915b505050505090806001018054610dda90611935565b80601f0160208091040260200160405190810160405280929190818152602001828054610e0690611935565b8015610e535780601f10610e2857610100808354040283529160200191610e53565b820191906000526020600020905b815481529060010190602001808311610e3657829003601f168201915b505050505090806002018054610e6890611935565b80601f0160208091040260200160405190810160405280929190818152602001828054610e9490611935565b8015610ee15780601f10610eb657610100808354040283529160200191610ee1565b820191906000526020600020905b815481529060010190602001808311610ec457829003601f168201915b505050505090806003018054610ef690611935565b80601f0160208091040260200160405190810160405280929190818152602001828054610f2290611935565b8015610f6f5780601f10610f4457610100808354040283529160200191610f6f565b820191906000526020600020905b815481529060010190602001808311610f5257829003601f168201915b5050505050908060040154908060050154908060060154905087565b6000835111610fcf576040517f08c379a0000000000000000000000000000000000000000000000000000000008152600401610fc690611c56565b60405180910390fd5b6000825111611013576040517f08c379a000000000000000000000000000000000000000000000000000000000815260040161100a90611b12565b60405180910390fd5b60008111611056576040517f08c379a000000000000000000000000000000000000000000000000000000000815260040161104d90612149565b60405180910390fd5b60006001846040516110689190612054565b90815260200160405180910390209050600081600301805461108990611935565b9050116110cb576040517f08c379a00000000000000000000000000000000000000000000000000000000081526004016110c2906120b7565b60405180910390fd5b80600501548211611111576040517f08c379a0000000000000000000000000000000000000000000000000000000008152600401611108906121db565b60405180910390fd5b8181600501819055508281600001908161112b9190611f46565b5042816006018190555060005b60008054905081101561123c5784805190602001206000828154811061116157611160611966565b5b906000526020600020906007020160030160405161117f9190611a38565b6040518091039020036112295781600082815481106111a1576111a0611966565b5b9060005260206000209060070201600082018160000190816111c39190612211565b50600182018160010190816111d89190612211565b50600282018160020190816111ed9190612211565b50600382018160030190816112029190612211565b5060048201548160040155600582015481600501556006820154816006015590505061123c565b808061123490611a7e565b915050611138565b5050505050565b6000604051905090565b600080fd5b600080fd5b600080fd5b600080fd5b6000601f19601f8301169050919050565b7f4e487b7100000000000000000000000000000000000000000000000000000000600052604160045260246000fd5b6112aa82611261565b810181811067ffffffffffffffff821117156112c9576112c8611272565b5b80604052505050565b60006112dc611243565b90506112e882826112a1565b919050565b600067ffffffffffffffff82111561130857611307611272565b5b61131182611261565b9050602081019050919050565b82818337600083830152505050565b600061134061133b846112ed565b6112d2565b90508281526020810184848401111561135c5761135b61125c565b5b61136784828561131e565b509392505050565b600082601f83011261138457611383611257565b5b813561139484826020860161132d565b91505092915050565b6000602082840312156113b3576113b261124d565b5b600082013567ffffffffffffffff8111156113d1576113d0611252565b5b6113dd8482850161136f565b91505092915050565b600081519050919050565b600082825260208201905092915050565b60005b83811015611420578082015181840152602081019050611405565b60008484015250505050565b6000611437826113e6565b61144181856113f1565b9350611451818560208601611402565b61145a81611261565b840191505092915050565b6000819050919050565b61147881611465565b82525050565b600060e0820190508181036000830152611498818a61142c565b905081810360208301526114ac818961142c565b905081810360408301526114c0818861142c565b905081810360608301526114d4818761142c565b90506114e3608083018661146f565b6114f060a083018561146f565b6114fd60c083018461146f565b98975050505050505050565b600060208201905061151e600083018461146f565b92915050565b600081519050919050565b600082825260208201905092915050565b6000819050602082019050919050565b600082825260208201905092915050565b600061156c826113e6565b6115768185611550565b9350611586818560208601611402565b61158f81611261565b840191505092915050565b60006115a68383611561565b905092915050565b6000602082019050919050565b60006115c682611524565b6115d0818561152f565b9350836020820285016115e285611540565b8060005b8581101561161e57848403895281516115ff858261159a565b945061160a836115ae565b925060208a019950506001810190506115e6565b50829750879550505050505092915050565b600081519050919050565b600082825260208201905092915050565b6000819050602082019050919050565b61166581611465565b82525050565b6000611677838361165c565b60208301905092915050565b6000602082019050919050565b600061169b82611630565b6116a5818561163b565b93506116b08361164c565b8060005b838110156116e15781516116c8888261166b565b97506116d383611683565b9250506001810190506116b4565b5085935050505092915050565b6000604082019050818103600083015261170881856115bb565b9050818103602083015261171c8184611690565b90509392505050565b61172e81611465565b811461173957600080fd5b50565b60008135905061174b81611725565b92915050565b60008060008060008060c0878903121561176e5761176d61124d565b5b600087013567ffffffffffffffff81111561178c5761178b611252565b5b61179889828a0161136f565b965050602087013567ffffffffffffffff8111156117b9576117b8611252565b5b6117c589828a0161136f565b955050604087013567ffffffffffffffff8111156117e6576117e5611252565b5b6117f289828a0161136f565b945050606087013567ffffffffffffffff81111561181357611812611252565b5b61181f89828a0161136f565b935050608061183089828a0161173c565b92505060a061184189828a0161173c565b9150509295509295509295565b6000602082840312156118645761186361124d565b5b60006118728482850161173c565b91505092915050565b6000806000606084860312156118945761189361124d565b5b600084013567ffffffffffffffff8111156118b2576118b1611252565b5b6118be8682870161136f565b935050602084013567ffffffffffffffff8111156118df576118de611252565b5b6118eb8682870161136f565b92505060406118fc8682870161173c565b9150509250925092565b7f4e487b7100000000000000000000000000000000000000000000000000000000600052602260045260246000fd5b6000600282049050600182168061194d57607f821691505b6020821081036119605761195f611906565b5b50919050565b7f4e487b7100000000000000000000000000000000000000000000000000000000600052603260045260246000fd5b600081905092915050565b60008190508160005260206000209050919050565b600081546119c281611935565b6119cc8186611995565b945060018216600081146119e757600181146119fc57611a2f565b60ff1983168652811515820286019350611a2f565b611a05856119a0565b60005b83811015611a2757815481890152600182019150602081019050611a08565b838801955050505b50505092915050565b6000611a4482846119b5565b915081905092915050565b7f4e487b7100000000000000000000000000000000000000000000000000000000600052601160045260246000fd5b6000611a8982611465565b91507fffffffffffffffffffffffffffffffffffffffffffffffffffffffffffffffff8203611abb57611aba611a4f565b5b600182019050919050565b7f4269646465722063616e6e6f7420626520656d70747900000000000000000000600082015250565b6000611afc6016836113f1565b9150611b0782611ac6565b602082019050919050565b60006020820190508181036000830152611b2b81611aef565b9050919050565b7f4f776e65722063616e6e6f7420626520656d7074790000000000000000000000600082015250565b6000611b686015836113f1565b9150611b7382611b32565b602082019050919050565b60006020820190508181036000830152611b9781611b5b565b9050919050565b7f4974656d2063616e6e6f7420626520656d707479000000000000000000000000600082015250565b6000611bd46014836113f1565b9150611bdf82611b9e565b602082019050919050565b60006020820190508181036000830152611c0381611bc7565b9050919050565b7f4974656d49642063616e6e6f7420626520656d70747900000000000000000000600082015250565b6000611c406016836113f1565b9150611c4b82611c0a565b602082019050919050565b60006020820190508181036000830152611c6f81611c33565b9050919050565b7f42617365207072696365206d7573742062652067726561746572207468616e2060008201527f3000000000000000000000000000000000000000000000000000000000000000602082015250565b6000611cd26021836113f1565b9150611cdd82611c76565b604082019050919050565b60006020820190508181036000830152611d0181611cc5565b9050919050565b7f43757272656e74207072696365206d757374206265206772656174657220746860008201527f616e206f7220657175616c20746f206261736520707269636500000000000000602082015250565b6000611d646039836113f1565b9150611d6f82611d08565b604082019050919050565b60006020820190508181036000830152611d9381611d57565b9050919050565b60008190508160005260206000209050919050565b60006020601f8301049050919050565b600082821b905092915050565b600060088302611dfc7fffffffffffffffffffffffffffffffffffffffffffffffffffffffffffffffff82611dbf565b611e068683611dbf565b95508019841693508086168417925050509392505050565b6000819050919050565b6000611e43611e3e611e3984611465565b611e1e565b611465565b9050919050565b6000819050919050565b611e5d83611e28565b611e71611e6982611e4a565b848454611dcc565b825550505050565b600090565b611e86611e79565b611e91818484611e54565b505050565b5b81811015611eb557611eaa600082611e7e565b600181019050611e97565b5050565b601f821115611efa57611ecb81611d9a565b611ed484611daf565b81016020851015611ee3578190505b611ef7611eef85611daf565b830182611e96565b50505b505050565b600082821c905092915050565b6000611f1d60001984600802611eff565b1980831691505092915050565b6000611f368383611f0c565b9150826002028217905092915050565b611f4f826113e6565b67ffffffffffffffff811115611f6857611f67611272565b5b611f728254611935565b611f7d828285611eb9565b600060209050601f831160018114611fb05760008415611f9e578287015190505b611fa88582611f2a565b865550612010565b601f198416611fbe86611d9a565b60005b82811015611fe657848901518255600182019150602085019450602081019050611fc1565b868310156120035784890151611fff601f891682611f0c565b8355505b6001600288020188555050505b505050505050565b600081905092915050565b600061202e826113e6565b6120388185612018565b9350612048818560208601611402565b80840191505092915050565b60006120608284612023565b915081905092915050565b7f4974656d206e6f7420666f756e64000000000000000000000000000000000000600082015250565b60006120a1600e836113f1565b91506120ac8261206b565b602082019050919050565b600060208201905081810360008301526120d081612094565b9050919050565b7f42696420616d6f756e74206d7573742062652067726561746572207468616e2060008201527f3000000000000000000000000000000000000000000000000000000000000000602082015250565b60006121336021836113f1565b915061213e826120d7565b604082019050919050565b6000602082019050818103600083015261216281612126565b9050919050565b7f4e657720626964206d75737420626520686967686572207468616e206375727260008201527f656e742070726963650000000000000000000000000000000000000000000000602082015250565b60006121c56029836113f1565b91506121d082612169565b604082019050919050565b600060208201905081810360008301526121f4816121b8565b9050919050565b60008154905061220a81611935565b9050919050565b81810361221f5750506122f7565b612228826121fb565b67ffffffffffffffff81111561224157612240611272565b5b61224b8254611935565b612256828285611eb9565b6000601f8311600181146122855760008415612273578287015490505b61227d8582611f2a565b8655506122f0565b601f19841661229387611d9a565b965061229e86611d9a565b60005b828110156122c6578489015482556001820191506001850194506020810190506122a1565b868310156122e357848901546122df601f891682611f0c565b8355505b6001600288020188555050505b5050505050505b56fea2646970667358221220bf506de9245a85b38a7b25e80af1b8abd52f8a1eae12be0e5b1fa74964c8661064736f6c63430008130033",
  "immutableReferences": {},
  "source": "// SPDX-License-Identifier: MIT\npragma solidity ^0.8.0;\n\ncontract AuctionBid {\n    struct Item {\n        string bidder;\n        string owner;\n        string item;\n        string itemId;\n        uint256 basePrice;\n        uint256 currentPrice;\n        uint256 timestamp;\n    }\n\n    // Array to store all items\n    Item[] public items;\n    mapping(string => Item) public itemMapping;\n    \n    function addItem(\n        string memory _bidder,\n        string memory _owner,\n        string memory _item,\n        string memory _itemId,\n        uint256 _basePrice,\n        uint256 _currentPrice\n    ) public {\n        require(bytes(_bidder).length > 0, \"Bidder cannot be empty\");\n        require(bytes(_owner).length > 0, \"Owner cannot be empty\");\n        require(bytes(_item).length > 0, \"Item cannot be empty\");\n        require(bytes(_itemId).length > 0, \"ItemId cannot be empty\");\n        require(_basePrice > 0, \"Base price must be greater than 0\");\n        require(_currentPrice >= _basePrice, \"Current price must be greater than or equal to base price\");\n\n        Item memory newItem = Item({\n            bidder: _bidder,\n            owner: _owner,\n            item: _item,\n            itemId: _itemId,\n            basePrice: _basePrice,\n            currentPrice: _currentPrice,\n            timestamp: block.timestamp\n        });\n\n        items.push(newItem);\n        itemMapping[_itemId] = newItem;\n    }\n\n    function placeBid(\n        string memory _itemId,\n        string memory _bidder,\n        uint256 _newPrice\n    ) public {\n        require(bytes(_itemId).length > 0, \"ItemId cannot be empty\");\n        require(bytes(_bidder).length > 0, \"Bidder cannot be empty\");\n        require(_newPrice > 0, \"Bid amount must be greater than 0\");\n\n        Item storage currentItem = itemMapping[_itemId];\n        require(bytes(currentItem.itemId).length > 0, \"Item not found\");\n        require(_newPrice > currentItem.currentPrice, \"New bid must be higher than current price\");\n\n        // Update the item in mapping\n        currentItem.currentPrice = _newPrice;\n        currentItem.bidder = _bidder;\n        currentItem.timestamp = block.timestamp;\n\n        // Update the item in array\n        for (uint i = 0; i < items.length; i++) {\n            if (keccak256(bytes(items[i].itemId)) == keccak256(bytes(_itemId))) {\n                items[i] = currentItem;\n                break;\n            }\n        }\n    }\n\n    function getItemCount() public view returns (uint256) {\n        return items.length;\n    }\n\n    function getItem(string memory _itemId) public view returns (\n        string memory bidder,\n        string memory owner,\n        string memory item,\n        string memory itemId,\n        uint256 basePrice,\n        uint256 currentPrice,\n        uint256 timestamp\n    ) {\n        require(bytes(_itemId).length > 0, \"ItemId cannot be empty\");\n        Item storage currentItem = itemMapping[_itemId];\n        require(bytes(currentItem.itemId).length > 0, \"Item not found\");\n\n        return (\n            currentItem.bidder,\n            currentItem.owner,\n            currentItem.item,\n            currentItem.itemId,\n            currentItem.basePrice,\n            currentItem.currentPrice,\n            currentItem.timestamp\n        );\n    }\n\n    function getItemsByBidder(string memory _bidder) public view returns (\n        string[] memory itemIds,\n        uint256[] memory prices\n    ) {\n        uint count = 0;\n        for (uint i = 0; i < items.length; i++) {\n            if (keccak256(bytes(items[i].bidder)) == keccak256(bytes(_bidder))) {\n                count++;\n            }\n        }\n\n        itemIds = new string[](count);\n        prices = new uint256[](count);\n        uint currentIndex = 0;\n\n        for (uint i = 0; i < items.length; i++) {\n            if (keccak256(bytes(items[i].bidder)) == keccak256(bytes(_bidder))) {\n                itemIds[currentIndex] = items[i].itemId;\n                prices[currentIndex] = items[i].currentPrice;\n                currentIndex++;\n            }\n        }\n\n        return (itemIds, prices);\n    }\n}\n",
  "sourcePath": "E:\\KITS-BLOCKCHAIN\\KITS-IT-Auction-Blockchain-Project-Final-year\\contracts\\AuctionBid.sol",
  "compiler": {
    "name": "solc",
    "version": "0.8.19+commit.7dd6d404.Emscripten.clang"
  },
  "schemaVersion": "3.4.16",
  "updatedAt": "2025-02-13T04:21:17.299Z",
  "networkType": "ethereum",
  "devdoc": {
    "kind": "dev",
    "methods": {},
    "version": 1
  },
  "userdoc": {
    "kind": "user",
    "methods": {},
    "version": 1
  }
}